{
  "_format": "hh-sol-artifact-1",
  "contractName": "NFTMarket",
  "sourceName": "contracts/NFTMarket.sol",
  "abi": [
    {
      "inputs": [
        {
          "internalType": "address[]",
          "name": "playerAddresses",
          "type": "address[]"
        }
      ],
      "name": "addCollectionToWhitelist",
      "outputs": [],
      "stateMutability": "nonpayable",
      "type": "function"
    },
    {
      "inputs": [
        {
          "internalType": "address",
          "name": "nftContract",
          "type": "address"
        },
        {
          "internalType": "uint256",
          "name": "itemId",
          "type": "uint256"
        }
      ],
      "name": "buyMarketSale",
      "outputs": [],
      "stateMutability": "nonpayable",
      "type": "function"
    },
    {
      "inputs": [
        {
          "internalType": "address",
          "name": "nftContract",
          "type": "address"
        },
        {
          "internalType": "uint256",
          "name": "tokenId",
          "type": "uint256"
        },
        {
          "internalType": "uint256",
          "name": "collectionId",
          "type": "uint256"
        },
        {
          "internalType": "uint256",
          "name": "price",
          "type": "uint256"
        }
      ],
      "name": "createMarketItem",
      "outputs": [],
      "stateMutability": "nonpayable",
      "type": "function"
    },
    {
      "inputs": [
        {
          "internalType": "uint256",
          "name": "itemId",
          "type": "uint256"
        },
        {
          "internalType": "uint256",
          "name": "price",
          "type": "uint256"
        }
      ],
      "name": "createMarketSale",
      "outputs": [],
      "stateMutability": "nonpayable",
      "type": "function"
    },
    {
      "inputs": [
        {
          "internalType": "address",
          "name": "nftContract",
          "type": "address"
        },
        {
          "internalType": "uint256",
          "name": "itemId",
          "type": "uint256"
        }
      ],
      "name": "payBuyingFeeToAdmin",
      "outputs": [],
      "stateMutability": "nonpayable",
      "type": "function"
    },
    {
      "inputs": [
        {
          "internalType": "uint256",
          "name": "_collectionId",
          "type": "uint256"
        }
      ],
      "name": "setCollectionForWhitelist",
      "outputs": [],
      "stateMutability": "nonpayable",
      "type": "function"
    },
    {
      "inputs": [],
      "stateMutability": "nonpayable",
      "type": "constructor"
    },
    {
      "anonymous": false,
      "inputs": [
        {
          "indexed": true,
          "internalType": "uint256",
          "name": "itemId",
          "type": "uint256"
        },
        {
          "indexed": true,
          "internalType": "address",
          "name": "nftContract",
          "type": "address"
        },
        {
          "indexed": true,
          "internalType": "uint256",
          "name": "tokenId",
          "type": "uint256"
        },
        {
          "indexed": false,
          "internalType": "uint256",
          "name": "collectionId",
          "type": "uint256"
        },
        {
          "indexed": false,
          "internalType": "address",
          "name": "seller",
          "type": "address"
        },
        {
          "indexed": false,
          "internalType": "address",
          "name": "owner",
          "type": "address"
        },
        {
          "indexed": false,
          "internalType": "uint256",
          "name": "price",
          "type": "uint256"
        },
        {
          "indexed": false,
          "internalType": "bool",
          "name": "sold",
          "type": "bool"
        }
      ],
      "name": "MarketItemCreated",
      "type": "event"
    },
    {
      "inputs": [
        {
          "internalType": "address",
          "name": "nftContract",
          "type": "address"
        },
        {
          "internalType": "address",
          "name": "to",
          "type": "address"
        },
        {
          "internalType": "uint256",
          "name": "costs",
          "type": "uint256"
        }
      ],
      "name": "payWithADMC",
      "outputs": [],
      "stateMutability": "nonpayable",
      "type": "function"
    },
    {
      "inputs": [
        {
          "internalType": "uint256",
          "name": "price",
          "type": "uint256"
        }
      ],
      "name": "setListingPrice",
      "outputs": [],
      "stateMutability": "nonpayable",
      "type": "function"
    },
    {
      "anonymous": false,
      "inputs": [
        {
          "indexed": false,
          "internalType": "address",
          "name": "player",
          "type": "address"
        }
      ],
      "name": "WhiteListAdded",
      "type": "event"
    },
    {
      "inputs": [
        {
          "internalType": "uint256",
          "name": "itemId",
          "type": "uint256"
        }
      ],
      "name": "buyingFee",
      "outputs": [
        {
          "internalType": "uint256",
          "name": "",
          "type": "uint256"
        }
      ],
      "stateMutability": "view",
      "type": "function"
    },
    {
      "inputs": [
        {
          "internalType": "uint256",
          "name": "itemId",
          "type": "uint256"
        }
      ],
      "name": "buyingPrice",
      "outputs": [
        {
          "internalType": "uint256",
          "name": "",
          "type": "uint256"
        }
      ],
      "stateMutability": "view",
      "type": "function"
    },
    {
      "inputs": [
        {
          "internalType": "uint256",
          "name": "collectionId",
          "type": "uint256"
        }
      ],
      "name": "fetchItemsCreated",
      "outputs": [
        {
          "components": [
            {
              "internalType": "uint256",
              "name": "itemId",
              "type": "uint256"
            },
            {
              "internalType": "address",
              "name": "nftContract",
              "type": "address"
            },
            {
              "internalType": "uint256",
              "name": "tokenId",
              "type": "uint256"
            },
            {
              "internalType": "uint256",
              "name": "collectionId",
              "type": "uint256"
            },
            {
              "internalType": "address payable",
              "name": "seller",
              "type": "address"
            },
            {
              "internalType": "address payable",
              "name": "owner",
              "type": "address"
            },
            {
              "internalType": "uint256",
              "name": "price",
              "type": "uint256"
            },
            {
              "internalType": "bool",
              "name": "sold",
              "type": "bool"
            }
          ],
          "internalType": "struct NFTMarket.MarketItem[]",
          "name": "",
          "type": "tuple[]"
        }
      ],
      "stateMutability": "view",
      "type": "function"
    },
    {
      "inputs": [
        {
          "internalType": "uint256",
          "name": "collectionId",
          "type": "uint256"
        }
      ],
      "name": "fetchMarketItems",
      "outputs": [
        {
          "components": [
            {
              "internalType": "uint256",
              "name": "itemId",
              "type": "uint256"
            },
            {
              "internalType": "address",
              "name": "nftContract",
              "type": "address"
            },
            {
              "internalType": "uint256",
              "name": "tokenId",
              "type": "uint256"
            },
            {
              "internalType": "uint256",
              "name": "collectionId",
              "type": "uint256"
            },
            {
              "internalType": "address payable",
              "name": "seller",
              "type": "address"
            },
            {
              "internalType": "address payable",
              "name": "owner",
              "type": "address"
            },
            {
              "internalType": "uint256",
              "name": "price",
              "type": "uint256"
            },
            {
              "internalType": "bool",
              "name": "sold",
              "type": "bool"
            }
          ],
          "internalType": "struct NFTMarket.MarketItem[]",
          "name": "",
          "type": "tuple[]"
        }
      ],
      "stateMutability": "view",
      "type": "function"
    },
    {
      "inputs": [
        {
          "internalType": "uint256",
          "name": "collectionId",
          "type": "uint256"
        }
      ],
      "name": "fetchMyNFTS",
      "outputs": [
        {
          "components": [
            {
              "internalType": "uint256",
              "name": "itemId",
              "type": "uint256"
            },
            {
              "internalType": "address",
              "name": "nftContract",
              "type": "address"
            },
            {
              "internalType": "uint256",
              "name": "tokenId",
              "type": "uint256"
            },
            {
              "internalType": "uint256",
              "name": "collectionId",
              "type": "uint256"
            },
            {
              "internalType": "address payable",
              "name": "seller",
              "type": "address"
            },
            {
              "internalType": "address payable",
              "name": "owner",
              "type": "address"
            },
            {
              "internalType": "uint256",
              "name": "price",
              "type": "uint256"
            },
            {
              "internalType": "bool",
              "name": "sold",
              "type": "bool"
            }
          ],
          "internalType": "struct NFTMarket.MarketItem[]",
          "name": "",
          "type": "tuple[]"
        }
      ],
      "stateMutability": "view",
      "type": "function"
    },
    {
      "inputs": [
        {
          "internalType": "uint256",
          "name": "collectionId",
          "type": "uint256"
        }
      ],
      "name": "getCreatedItemCountForCollection",
      "outputs": [
        {
          "internalType": "uint256",
          "name": "",
          "type": "uint256"
        }
      ],
      "stateMutability": "view",
      "type": "function"
    },
    {
      "inputs": [],
      "name": "getCurrentItemId",
      "outputs": [
        {
          "internalType": "uint256",
          "name": "",
          "type": "uint256"
        }
      ],
      "stateMutability": "view",
      "type": "function"
    },
    {
      "inputs": [
        {
          "internalType": "uint256",
          "name": "collectionId",
          "type": "uint256"
        }
      ],
      "name": "getItemCountOwnedByAccount",
      "outputs": [
        {
          "internalType": "uint256",
          "name": "",
          "type": "uint256"
        }
      ],
      "stateMutability": "view",
      "type": "function"
    },
    {
      "inputs": [],
      "name": "getListingPrice",
      "outputs": [
        {
          "internalType": "uint256",
          "name": "",
          "type": "uint256"
        }
      ],
      "stateMutability": "view",
      "type": "function"
    },
    {
      "inputs": [
        {
          "internalType": "address",
          "name": "player",
          "type": "address"
        },
        {
          "internalType": "uint256",
          "name": "collectionId",
          "type": "uint256"
        }
      ],
      "name": "isAllowed",
      "outputs": [
        {
          "internalType": "bool",
          "name": "",
          "type": "bool"
        }
      ],
      "stateMutability": "view",
      "type": "function"
    },
    {
      "inputs": [
        {
          "internalType": "uint256",
          "name": "tokenId",
          "type": "uint256"
        }
      ],
      "name": "isCreatedMarketItem",
      "outputs": [
        {
          "internalType": "bool",
          "name": "",
          "type": "bool"
        }
      ],
      "stateMutability": "view",
      "type": "function"
    }
  ],
  "bytecode": "0x6080604052655af3107a400060075534801561001a57600080fd5b506001600055600380546001600160a01b03191633179055612002806100416000396000f3fe608060405234801561001057600080fd5b50600436106101215760003560e01c806368eb4949116100ad578063bab5952311610071578063bab595231461024c578063bd3ecad11461025f578063f7395d3414610272578063f8350ed014610285578063fda59f201461029857610121565b806368eb4949146101eb5780637c726b69146101f357806384b7a46914610206578063925aca7e14610219578063aaa464b51461022c57610121565b80633155cd09116100f45780633155cd091461017f578063315b3f5f1461019f5780634275fb2c146101b2578063442970e2146101c5578063599ba234146101d857610121565b80630442a92114610126578063083aeb9c1461013b57806312e855851461016457806321cf91ac1461016c575b600080fd5b610139610134366004611837565b6102ab565b005b61014e610149366004611a5c565b61030c565b60405161015b9190611e9b565b60405180910390f35b61014e61033e565b61013961017a366004611862565b610344565b61019261018d366004611a5c565b61048a565b60405161015b9190611ae4565b6101926101ad366004611a5c565b610670565b61014e6101c0366004611a5c565b6108d4565b6101926101d3366004611a5c565b6108f1565b6101396101e6366004611896565b610b4b565b61014e610f63565b610139610201366004611a5c565b610f74565b6101396102143660046117f7565b610fdf565b6101396102273660046118d0565b611221565b61023f61023a366004611a5c565b6113bd565b60405161015b9190611b8d565b61013961025a366004611837565b6113dd565b61014e61026d366004611a5c565b61164a565b61014e610280366004611a5c565b61165c565b61023f610293366004611837565b611688565b6101396102a6366004611a5c565b6116bb565b600260005414156102d75760405162461bcd60e51b81526004016102ce90611dca565b60405180910390fd5b600260009081556102e78261030c565b6003549091506103029084906001600160a01b031683610fdf565b5050600160005550565b60008181526008602052604081206006015481600261032c606484611f17565b6103369190611f17565b949350505050565b60075490565b600260005414156103675760405162461bcd60e51b81526004016102ce90611dca565b600260009081558281526008602052604090206006810154600390910154828214156103a55760405162461bcd60e51b81526004016102ce90611c96565b606483116103c55760405162461bcd60e51b81526004016102ce90611c50565b60008481526008602052604090206005810180546001600160a01b031990811690915560048201805490911633179055600701805460ff1916905561040e83633b9aca00611f37565b60008581526008602052604090206006015561042a60026116c0565b336000908152600a602090815260408083208484529091528120805460019290610455908490611f56565b90915550506000818152600b60205260408120805460019290610479908490611eff565b909155505060016000555050505050565b6060600061049860016116e7565b6000848152600b602052604081205491925090819067ffffffffffffffff8111156104d357634e487b7160e01b600052604160045260246000fd5b60405190808252806020026020018201604052801561050c57816020015b6104f96116f4565b8152602001906001900390816104f15790505b50905060005b8381101561066757600060088161052a846001611eff565b81526020810191909152604001600020600501546001600160a01b03161480156105735750856008600061055f846001611eff565b815260200190815260200160002060030154145b15610655576000600881610588846001611eff565b8152602080820192909252604090810160009081205480825260088452908290208251610100810184528154815260018201546001600160a01b039081169582019590955260028201549381019390935260038101546060840152600481015484166080840152600581015490931660a0830152600683015460c0830152600783015460ff16151560e0830152855190935085908790811061063a57634e487b7160e01b600052603260045260246000fd5b6020908102919091010152610650600186611eff565b945050505b8061065f81611f6d565b915050610512565b50949350505050565b6060600061067e60016116e7565b905060008060005b8381101561070c57336008600061069e846001611eff565b81526020810191909152604001600020600501546001600160a01b03161480156106e7575085600860006106d3846001611eff565b815260200190815260200160002060030154145b156106fa576106f7600184611eff565b92505b8061070481611f6d565b915050610686565b5060008267ffffffffffffffff81111561073657634e487b7160e01b600052604160045260246000fd5b60405190808252806020026020018201604052801561076f57816020015b61075c6116f4565b8152602001906001900390816107545790505b50905060005b848110156108ca57336008600061078d846001611eff565b81526020810191909152604001600020600501546001600160a01b03161480156107d6575086600860006107c2846001611eff565b815260200190815260200160002060030154145b156108b85760006008816107eb846001611eff565b8152602080820192909252604090810160009081205480825260088452908290208251610100810184528154815260018201546001600160a01b039081169582019590955260028201549381019390935260038101546060840152600481015484166080840152600581015490931660a0830152600683015460c0830152600783015460ff16151560e0830152855190935085908790811061089d57634e487b7160e01b600052603260045260246000fd5b60209081029190910101526108b3600186611eff565b945050505b806108c281611f6d565b915050610775565b5095945050505050565b336000908152600a60209081526040808320938352929052205490565b606060006108ff60016116e7565b905060008060005b8381101561098d57336008600061091f846001611eff565b81526020810191909152604001600020600401546001600160a01b031614801561096857508560086000610954846001611eff565b815260200190815260200160002060030154145b1561097b57610978600184611eff565b92505b8061098581611f6d565b915050610907565b5060008267ffffffffffffffff8111156109b757634e487b7160e01b600052604160045260246000fd5b6040519080825280602002602001820160405280156109f057816020015b6109dd6116f4565b8152602001906001900390816109d55790505b50905060005b848110156108ca573360086000610a0e846001611eff565b81526020810191909152604001600020600401546001600160a01b0316148015610a5757508660086000610a43846001611eff565b815260200190815260200160002060030154145b15610b39576000600881610a6c846001611eff565b8152602080820192909252604090810160009081205480825260088452908290208251610100810184528154815260018201546001600160a01b039081169582019590955260028201549381019390935260038101546060840152600481015484166080840152600581015490931660a0830152600683015460c0830152600783015460ff16151560e08301528551909350859087908110610b1e57634e487b7160e01b600052603260045260246000fd5b6020908102919091010152610b34600186611eff565b945050505b80610b4381611f6d565b9150506109f6565b60026000541415610b6e5760405162461bcd60e51b81526004016102ce90611dca565b6002600090815560405163536b89ad60e11b81526001600160a01b0386169063a6d7135a90610ba1908690600401611e9b565b60006040518083038186803b158015610bb957600080fd5b505afa158015610bcd573d6000803e3d6000fd5b505050506040513d6000823e601f3d908101601f19168201604052610bf591908101906119a3565b6060015160008581526009602052604081205491925090610c165782610c9b565b60405163536b89ad60e11b81526001600160a01b0387169063a6d7135a90610c42908790600401611e9b565b60006040518083038186803b158015610c5a57600080fd5b505afa158015610c6e573d6000803e3d6000fd5b505050506040513d6000823e601f3d908101601f19168201604052610c9691908101906119a3565b60a001515b6000858152600b6020526040902054909150821015610ccc5760405162461bcd60e51b81526004016102ce90611ce3565b60648111610cec5760405162461bcd60e51b81526004016102ce90611c19565b600354600754610d099188916001600160a01b0390911690610fdf565b610d1360016116eb565b6000610d1f60016116e7565b60408051610100810182528281526001600160a01b038a16602082015290810188905260608101879052336080820152600060a082015290915060c08101610d6b84633b9aca00611f37565b81526000602091820181905283815260088252604080822084518155848401516001820180546001600160a01b03199081166001600160a01b03938416179091558684015160028401556060870151600384015560808701516004808501805484169285169290921790915560a08801516005850180549093169084161790915560c0870151600684015560e0909601516007909201805460ff1916921515929092179091558a8352600990935290819020849055516323b872dd60e01b8152908916916323b872dd91610e4591339130918c9101611ac0565b600060405180830381600087803b158015610e5f57600080fd5b505af1158015610e73573d6000803e3d6000fd5b5050604051631c7a01a760e21b81526001600160a01b038a1692506371e8069c9150610ea3908990600401611e9b565b600060405180830381600087803b158015610ebd57600080fd5b505af1158015610ed1573d6000803e3d6000fd5b5050505085876001600160a01b0316827f79f8c05bb09c0956360a67fcd99d7cd58b143c2e5965443ccf2238950961eac58833600088633b9aca00610f169190611f37565b6000604051610f29959493929190611ea4565b60405180910390a46000858152600b60205260408120805460019290610f50908490611eff565b9091555050600160005550505050505050565b6000610f6f60016116e7565b905090565b6003546001600160a01b03163314610f9e5760405162461bcd60e51b81526004016102ce90611d4d565b60026000541415610fc15760405162461bcd60e51b81526004016102ce90611dca565b6002600055610fd481633b9aca00611f37565b600755506001600055565b6000836001600160a01b031663280aada76040518163ffffffff1660e01b815260040160206040518083038186803b15801561101a57600080fd5b505afa15801561102e573d6000803e3d6000fd5b505050506040513d601f19601f8201168201806040525081019061105291906117db565b604051636eb1769f60e11b815290915081906000906001600160a01b0383169063dd62ed3e906110889033903090600401611aa6565b60206040518083038186803b1580156110a057600080fd5b505afa1580156110b4573d6000803e3d6000fd5b505050506040513d601f19601f820116820180604052508101906110d89190611a74565b9050838110156110fa5760405162461bcd60e51b81526004016102ce90611e54565b6040516370a0823160e01b815284906001600160a01b038416906370a0823190611128903390600401611a92565b60206040518083038186803b15801561114057600080fd5b505afa158015611154573d6000803e3d6000fd5b505050506040513d601f19601f820116820180604052508101906111789190611a74565b10156111965760405162461bcd60e51b81526004016102ce90611d7a565b6040516323b872dd60e01b81526001600160a01b038316906323b872dd906111c690339089908990600401611ac0565b602060405180830381600087803b1580156111e057600080fd5b505af11580156111f4573d6000803e3d6000fd5b505050506040513d601f19601f820116820180604052508101906112189190611983565b50505050505050565b6003546001600160a01b0316331461124b5760405162461bcd60e51b81526004016102ce90611d4d565b6002600054141561126e5760405162461bcd60e51b81526004016102ce90611dca565b600260009081555b81518110156113b4576001600560008484815181106112a557634e487b7160e01b600052603260045260246000fd5b60200260200101516001600160a01b03166001600160a01b0316815260200190815260200160002060006101000a81548160ff021916908315150217905550600482828151811061130657634e487b7160e01b600052603260045260246000fd5b60209081029190910181015182546001810184556000938452919092200180546001600160a01b0319166001600160a01b0390921691909117905581517fbf309892cce19064e6d63ba3339f893b199c8cb5041fc6731702cb18e805d2919083908390811061138557634e487b7160e01b600052603260045260246000fd5b602002602001015160405161139a9190611a92565b60405180910390a1806113ac81611f6d565b915050611276565b50506001600055565b6000818152600960205260408120548190156113d7575060015b92915050565b600260005414156114005760405162461bcd60e51b81526004016102ce90611dca565b6002600081815582815260086020526040808220600681015460038201549190940154915163536b89ad60e11b81529092906001600160a01b0387169063a6d7135a90611451908690600401611e9b565b60006040518083038186803b15801561146957600080fd5b505afa15801561147d573d6000803e3d6000fd5b505050506040513d6000823e601f3d908101601f191682016040526114a591908101906119a3565b6080015190506114b53384611688565b6114d15760405162461bcd60e51b81526004016102ce90611bcf565b336000908152600a6020908152604080832086845290915290205481101561150b5760405162461bcd60e51b81526004016102ce90611e01565b6000858152600860205260409020600401546115359087906001600160a01b03166102148861165c565b6040516323b872dd60e01b81526001600160a01b038716906323b872dd9061156590309033908790600401611ac0565b600060405180830381600087803b15801561157f57600080fd5b505af1158015611593573d6000803e3d6000fd5b50505060008681526008602090815260408083206005810180546001600160a01b031916339081179091556007909101805460ff19166001908117909155908452600a83528184208885529092528220805491935091906115f5908490611eff565b90915550506000838152600b602052604090205415611633576000838152600b6020526040812080546001929061162d908490611f56565b90915550505b61163d60026116eb565b5050600160005550505050565b6000908152600b602052604090205490565b6000818152600860205260408120600601546116778361030c565b6116819082611f56565b9392505050565b6000600654821461169b575060016113d7565b50506001600160a01b031660009081526005602052604090205460ff1690565b600655565b8054806116df5760405162461bcd60e51b81526004016102ce90611b98565b600019019055565b5490565b80546001019055565b6040518061010001604052806000815260200160006001600160a01b03168152602001600081526020016000815260200160006001600160a01b0316815260200160006001600160a01b03168152602001600081526020016000151581525090565b600082601f830112611766578081fd5b815167ffffffffffffffff81111561178057611780611f9e565b6020611794601f8301601f19168201611ed5565b82815285828487010111156117a7578384fd5b835b838110156117c45785810183015182820184015282016117a9565b838111156108ca5750918201019190915292915050565b6000602082840312156117ec578081fd5b815161168181611fb4565b60008060006060848603121561180b578182fd5b833561181681611fb4565b9250602084013561182681611fb4565b929592945050506040919091013590565b60008060408385031215611849578182fd5b823561185481611fb4565b946020939093013593505050565b600080600060608486031215611876578283fd5b833561188181611fb4565b95602085013595506040909401359392505050565b600080600080608085870312156118ab578081fd5b84356118b681611fb4565b966020860135965060408601359560600135945092505050565b600060208083850312156118e2578182fd5b823567ffffffffffffffff808211156118f9578384fd5b818501915085601f83011261190c578384fd5b81358181111561191e5761191e611f9e565b838102915061192e848301611ed5565b8181528481019084860184860187018a1015611948578788fd5b8795505b83861015611976578035945061196185611fb4565b8483526001959095019491860191860161194c565b5098975050505050505050565b600060208284031215611994578081fd5b81518015158114611681578182fd5b6000602082840312156119b4578081fd5b815167ffffffffffffffff808211156119cb578283fd5b9083019060c082860312156119de578283fd5b6119e860c0611ed5565b825181526020830151828111156119fd578485fd5b611a0987828601611756565b602083015250604083015182811115611a20578485fd5b611a2c87828601611756565b604083015250606083015160608201526080830151608082015260a083015160a082015280935050505092915050565b600060208284031215611a6d578081fd5b5035919050565b600060208284031215611a85578081fd5b5051919050565b15159052565b6001600160a01b0391909116815260200190565b6001600160a01b0392831681529116602082015260400190565b6001600160a01b039384168152919092166020820152604081019190915260600190565b602080825282518282018190526000919060409081850190868401855b82811015611b8057815180518552868101516001600160a01b039081168887015286820151878701526060808301519087015260808083015182169087015260a0808301519091169086015260c0808201519086015260e09081015190611b6a81870183611a8c565b5050610100939093019290850190600101611b01565b5091979650505050505050565b901515815260200190565b6020808252601b908201527f436f756e7465723a2064656372656d656e74206f766572666c6f770000000000604082015260600190565b6020808252602a908201527f73656e646572206973206e6f7420616c6c6f776564207769746820746869732060408201526931b7b63632b1ba34b7b760b11b606082015260800190565b6020808252601f908201527f5072696365206d757374206265206174206c65617374203130302041444d4300604082015260600190565b60208082526026908201527f7072696365206d7573742062652073657420626967676572207468616e203130604082015265302041444d4360d01b606082015260800190565b6020808252602d908201527f75706461746564207072696365206d757374206265206e6f742073616d65207760408201526c697468206f6c6420707269636560981b606082015260800190565b60208082526044908201527f546865206d696e74696e6720636f756e74206f766572666c6f777320746f746160408201527f6c20636f756e7420696e207468652063757272656e7420636f6c6c656374696f6060820152631b881a5960e21b608082015260a00190565b602080825260139082015272556e617574686f72697365642041636365737360681b604082015260600190565b60208082526030908201527f62616c616e636520697320746f6f20736d616c6c2c20796f752063616e27742060408201526f3830bc903337b91036b4b73a34b7339760811b606082015260800190565b6020808252601f908201527f5265656e7472616e637947756172643a207265656e7472616e742063616c6c00604082015260600190565b60208082526033908201527f6974656d20636f756e74206f776e6564206279206f776e6572206973206f76656040820152721c999b1bddc81b1a5b5a5d19590818dbdd5b9d606a1b606082015260800190565b60208082526027908201527f636f73742069732074686520736d616c6c6572207468616e20616c6c6f77656460408201526608185b5bdd5b9d60ca1b606082015260800190565b90815260200190565b9485526001600160a01b03938416602086015291909216604084015260608301919091521515608082015260a00190565b60405181810167ffffffffffffffff81118282101715611ef757611ef7611f9e565b604052919050565b60008219821115611f1257611f12611f88565b500190565b600082611f3257634e487b7160e01b81526012600452602481fd5b500490565b6000816000190483118215151615611f5157611f51611f88565b500290565b600082821015611f6857611f68611f88565b500390565b6000600019821415611f8157611f81611f88565b5060010190565b634e487b7160e01b600052601160045260246000fd5b634e487b7160e01b600052604160045260246000fd5b6001600160a01b0381168114611fc957600080fd5b5056fea2646970667358221220b047865361c42a2e6989070028a1b1c2e9bbf9ca143481c78a935cd5170d0a7a64736f6c63430008000033",
  "linkReferences": {},
  "deployedLinkReferences": {}
}